:0200000470008A
:1000000017110000130181F417150000130545AD09
:10001000971500009385C5AC17160000130606B3AC
:1000200063FCC5008322050023A05500130545008D
:1000300093854500E3E8C5FE17150000130505B1DB
:1000400097150000938585B06378B50023200500DF
:1000500013054500E36CB5FEEF00D01EEF0000195C
:10006000970000009380400113050000B7055F80F2
:0C007000730020306F000000678000006B
:10007C00B71700709387C7AD3706011083C607000A
:10008C00639406006F000000938717000327460057
:10009C00135707011377F70FE30A07FE2320D60047
:1000AC006FF0DFFD370701108327470093D7070157
:1000BC0093F7F70FE38A07FE2320A7006780000061
:1000CC00B707011083A747001305F0FF93D78701EB
:1000DC00638E0700370701108327470093D78701EA
:1000EC00E38C07FE032507001375F50F67800000EE
:1000FC00B787001003A5070067800000B7870010C2
:10010C0003A5470067800000B78700101307F0FFB6
:10011C0023A6E70023A4A70023A6B700678000004E
:10012C0067800000130101FE232C8100232A91001B
:10013C002328210123263101232E11001309050048
:10014C001304C001930990009304C0FFB357894076
:10015C0093F7F70013F7F70F1305070363D4F900B0
:10016C00130577031304C4FFEFF0DFF3E31094FEE1
:10017C008320C1010324810183244101032901014E
:10018C008329C1001301010267800000130101FFE4
:10019C0023248100232611001304050003450400C9
:1001AC00631A05008320C10003248100130101019F
:1001BC0067800000EFF01FEF130414006FF01FFEB8
:1001CC009307F0011307F0FF97020000938242019E
:1001DC00739052307310073B7390073A678000009E
:1001EC00130101FF23261100EFF09FFDEFF05FF3E9
:1001FC0037150070130585AFEFF05FF9B717007076
:10020C009387479473905730B7170070938787EC98
:10021C0073900734B71700009387078873900730E3
:10022C0073504030B707008073901734B7B7000095
:10023C0093870710739027309307202273903730E1
:10024C00735030148320C10037150070130505B1AD
:10025C00130101016FF09FF3B7170070938787ECC0
:10026C00131525003305F5000325050067800000F4
:10027C00B717007013152500938787EC3305F5002D
:10028C002320B50067800000130101FF2326110015
:10029C00EFF01FDEF327303473903714F32710344C
:1002AC0073901714F327203473902714F3275010EE
:1002BC00739017348320C100130101016780000083
:1002CC00B71700709387479473905730F3273034E7
:1002DC0073903714F327203473902714731015146C
:1002EC00F32750107390173437E7FFFF1307D76DC0
:1002FC00B716000093D7350033F7E50093860688D0
:10030C003367D70093F7071093954500B3E7E700E1
:10031C0093F50502B3E5B7007390053067800000D4
:10032C0037070200732007301707000013078701F7
:10033C0073105730930610008327050093060000B6
:10034C0037070200733007301385060023A0F50031
:10035C006780000037070200732007301707000082
:10036C001307C7037310573093061000834705001B
:10037C000347150013178700B3E7E7000347250071
:10038C0013170701B3E7E70003473500131787017D
:10039C00B3E7E7009306000037070200733007301D
:1003AC001385060023A0F5006780000037070200C4
:1003BC0073200730170700001307470273105730DC
:1003CC0093061000830715009397870003470500D9
:1003DC00B3E7E700930600003707020073300730DD
:1003EC001385060023A0F500678000003707020084
:1003FC00732007301707000013078701731057305D
:10040C00930710002320B500930700003707020064
:10041C007330073013850700678000003707020030
:10042C0073200730170700001307070373105730AA
:10043C00930710002300B50093D58500A300B500E9
:10044C0093D585002301B50093D58500A301B50094
:10045C00930700003707020073300730138507003D
:10046C006780000037070200732007301707000071
:10047C001307070273105730930710002300B500C1
:10048C0093D58500A300B500930700003707020041
:10049C00733007301385070067800000130101FEDD
:1004AC00232E1100232C81009377250063820706ED
:1004BC0013040500930581001305E5FFEFF05FE6DB
:1004CC008357A100130730002324F10093F7370062
:1004DC006392E7029305C10013052400EFF05FE47B
:1004EC008327C1001397070183278100B3E7E70037
:1004FC002324F100832781002326F1008320C101EE
:10050C00032481010325C10013010102678000004F
:10051C009305C100EFF0DFE06FF05FFE130101FD0A
:10052C00232611022324810223229102232021035A
:10053C00232E3101232C41017324203463500404F5
:10054C001374F40F93077000631CF41E93070002DE
:10055C0073A047149307000873B047308320C1027F
:10056C000324810283244102032901028329C1014E
:10057C00032A8101130101036780000093074000E7
:10058C006302F40863E88702930720006308F418F9
:10059C0037150070130545B3EFF05FBF130504006A
:1005AC00EFF05FB837150070130505B3EFF01FBE01
:1005BC006F000019930760006306F40E9307900018
:1005CC00E318F4FC37140070130484F4832744FC00
:1005DC0013071000032584FA6384E7321307200005
:1005EC00638CE732639007348325C4FAEFF0DFB1F4
:1005FC009307000873A047309307000273B04714A9
:10060C006F00803073241034F3290030130504007C
:10061C00EFF0DFE8930405007325303493D7C40062
:10062C0093F7770013072000638AE7021307500043
:10063C00638CE702130710006398E7009305C10071
:10064C00EFF0DFD613090500630A09029385090050
:10065C0013050400EFF0DFC66FF05FF09305C100E7
:10066C00EFF05FCF6FF01FFE9305C100EFF01FD4CA
:10067C0013190501135909016FF01FFD8325C100E2
:10068C0013D574001375F501EFF09FBE13044400ED
:10069C0073101434B71700709387479473905730C6
:1006AC006FF0DFEBF3241034F329003013850400D2
:1006BC00EFF0DFDE130405007329303413554501C8
:1006CC001375F501EFF05FB91354C4001374740083
:1006DC009307100093050500630EF40093072000A8
:1006EC006302F40263060A02938509001385040071
:1006FC006FF05FF613050900EFF0DFD6130A050063
:10070C006FF05FFE13050900EFF05FD16FF01FFF74
:10071C0093844400739014346FF0DFF77329103412
:10072C00732A0030F32430349306F00213F7F407E5
:10073C0093D7C400630AD700930630076306D71219
:10074C00EFF09FB46FF09FE193F77700E39A87FE89
:10075C0013D5F4001375F501EFF01FB093090500E4
:10076C0013D544011375F501EFF01FAF1304050009
:10077C009305C10013850900EFF09FBA63080500CB
:10078C0093050A00130509006FF0DFEC93D7B40151
:10079C001307C0006388E70A6366F70213071000AB
:1007AC006386E70663800706130740006386E70845
:1007BC0013078000E396E7F88327C1003364F40045
:1007CC006F00C004130740016384E708636EF700F1
:1007DC0013070001E396E7F68327C10063D887026D
:1007EC00138407006F008002130780016388E706FB
:1007FC001307C001E396E7F48327C1006378F40084
:10080C006FF01FFE8327C1003304F400930504002E
:10081C0013850900EFF09FBDE31405F68325C10095
:10082C0013D574001375F501EFF09FA4130949005B
:10083C00731019346FF01FE68327C1003344F400A2
:10084C006FF0DFFC8327C1003374F4006FF01FFCE2
:10085C008327C100E35CF4FA6FF09FF88327C10093
:10086C00E3F687FA6FF0DFF793F7370063888704B6
:10087C00130730006384E7041307100013041000FF
:10088C006384E700EFF05FA03717000093D74401B3
:10089C00930607C063E0D702130727C06378F702FB
:1008AC0037F7FFFF13070738B387E700130720005C
:1008BC006374F704EFF05F9D6F00C00113D4F40074
:1008CC001374F401333480006FF01FFCEFF05F827F
:1008DC009309050063040400EFF01F9B93D474008C
:1008EC009385090013F5F401EFF09F981309490063
:1008FC00731019346FF09FC6EFF05F806FF05FFDDF
:10090C001375F50FEFF00FFAF327103493874700A8
:10091C00739017346FF09FC4EFF08FFA2324A4FA6E
:10092C006FF09FFE37150070130545B2EFF01F8670
:10093C00EFF00FF46FF09FC27311013423221100FA
:10094C002326310023284100232A5100232C610047
:10095C00232E710023208102232291022324A10241
:10096C002326B1022328C102232AD102232CE1021F
:10097C00232EF10223200105232211052324210516
:10098C002326310523284105232A5105232C6105F3
:10099C00232E710523208107232291072324A107ED
:1009AC002326B1072328C107232AD107232CE107CB
:1009BC00232EF107EFF09FB6832041008321C10065
:1009CC000322010183224101032381018323C101FD
:1009DC000324010283244102032581028325C102E1
:1009EC000326010383264103032781038327C103C5
:1009FC000328010483284104032981048329C104A9
:100A0C00032A0105832A4105032B8105832BC1058C
:100A1C00032C0106832C4106032D8106832DC10670
:100A2C00032E0107832E4107032F8107832FC10754
:100A3C007311013473002030130101FF2324810052
:100A4C0023229100170400001304C408970400002B
:100A5C0093844408B384844023202101232611006D
:100A6C0093D4244013090000631099041704000068
:100A7C0013044406970400009384C405B384844093
:100A8C00EFF0CFDE93D424401309000063189902D1
:100A9C008320C10003248100832441000329010029
:100AAC00130101016780000083270400130919005A
:100ABC0013044400E78007006FF01FFB832704003A
:100ACC001309190013044400E78007006FF01FFCA2
:100ADC000A6D616368696E654D6F64655362692068
:100AEC00657863657074696F6E0A00002A2A2A2083
:100AFC0056657852697363762042494F53202A2AEF
:100B0C002A0A00002A2A2A205375706572766973A6
:100B1C006F72202A2A2A0A00556E6B6E6F776E2030
:100B2C00534142490A000000556E6B6E6F776E2080
:0C0B3C00657863657074696F6E200000BE
:040000057000000087
:00000001FF
